{
  "contractName": "MyContract",
  "abi": [
    {
      "constant": true,
      "inputs": [
        {
          "name": "",
          "type": "uint256"
        }
      ],
      "name": "historiesIds",
      "outputs": [
        {
          "name": "",
          "type": "uint256"
        }
      ],
      "payable": false,
      "stateMutability": "view",
      "type": "function"
    },
    {
      "constant": true,
      "inputs": [
        {
          "name": "",
          "type": "uint256"
        }
      ],
      "name": "productsIds",
      "outputs": [
        {
          "name": "",
          "type": "uint256"
        }
      ],
      "payable": false,
      "stateMutability": "view",
      "type": "function"
    },
    {
      "constant": true,
      "inputs": [
        {
          "name": "",
          "type": "uint256"
        }
      ],
      "name": "stagesIds",
      "outputs": [
        {
          "name": "",
          "type": "uint256"
        }
      ],
      "payable": false,
      "stateMutability": "view",
      "type": "function"
    },
    {
      "constant": true,
      "inputs": [
        {
          "name": "",
          "type": "uint256"
        }
      ],
      "name": "veiculosIds",
      "outputs": [
        {
          "name": "",
          "type": "uint256"
        }
      ],
      "payable": false,
      "stateMutability": "view",
      "type": "function"
    },
    {
      "constant": true,
      "inputs": [
        {
          "name": "",
          "type": "uint256"
        }
      ],
      "name": "productsInHistory",
      "outputs": [
        {
          "name": "",
          "type": "uint256"
        }
      ],
      "payable": false,
      "stateMutability": "view",
      "type": "function"
    },
    {
      "anonymous": false,
      "inputs": [
        {
          "indexed": false,
          "name": "_addr",
          "type": "address"
        },
        {
          "indexed": false,
          "name": "newEmail",
          "type": "string"
        }
      ],
      "name": "userRegisted",
      "type": "event"
    },
    {
      "anonymous": false,
      "inputs": [
        {
          "indexed": false,
          "name": "id",
          "type": "uint256"
        }
      ],
      "name": "productRegistered",
      "type": "event"
    },
    {
      "anonymous": false,
      "inputs": [
        {
          "indexed": false,
          "name": "",
          "type": "uint256[]"
        }
      ],
      "name": "StageRegistered",
      "type": "event"
    },
    {
      "anonymous": false,
      "inputs": [
        {
          "indexed": false,
          "name": "_msg",
          "type": "string"
        }
      ],
      "name": "historyRegistered",
      "type": "event"
    },
    {
      "anonymous": false,
      "inputs": [
        {
          "indexed": false,
          "name": "_productId",
          "type": "uint256"
        },
        {
          "indexed": false,
          "name": "_msg",
          "type": "string"
        }
      ],
      "name": "productUpdated",
      "type": "event"
    },
    {
      "anonymous": false,
      "inputs": [
        {
          "indexed": false,
          "name": "_veiculoId",
          "type": "uint256"
        }
      ],
      "name": "veiculoRegistered",
      "type": "event"
    },
    {
      "constant": false,
      "inputs": [
        {
          "name": "_addr",
          "type": "address"
        },
        {
          "name": "_email",
          "type": "string"
        }
      ],
      "name": "setUser",
      "outputs": [],
      "payable": false,
      "stateMutability": "nonpayable",
      "type": "function"
    },
    {
      "constant": true,
      "inputs": [
        {
          "name": "_addr",
          "type": "address"
        }
      ],
      "name": "getUser",
      "outputs": [
        {
          "name": "",
          "type": "string"
        }
      ],
      "payable": false,
      "stateMutability": "view",
      "type": "function"
    },
    {
      "constant": false,
      "inputs": [
        {
          "components": [
            {
              "name": "id",
              "type": "uint256"
            },
            {
              "name": "placa",
              "type": "string"
            },
            {
              "name": "renavam",
              "type": "string"
            },
            {
              "name": "chassi",
              "type": "string"
            },
            {
              "name": "cor",
              "type": "string"
            },
            {
              "name": "modelo",
              "type": "string"
            },
            {
              "name": "anoFabricacao",
              "type": "uint256"
            },
            {
              "name": "potencia",
              "type": "uint256"
            },
            {
              "name": "productOwner",
              "type": "address"
            }
          ],
          "name": "_veiculo",
          "type": "tuple"
        }
      ],
      "name": "addVeiculo",
      "outputs": [],
      "payable": false,
      "stateMutability": "nonpayable",
      "type": "function"
    },
    {
      "constant": false,
      "inputs": [
        {
          "name": "_desc",
          "type": "string"
        },
        {
          "name": "_price",
          "type": "uint256"
        }
      ],
      "name": "addProduct",
      "outputs": [],
      "payable": false,
      "stateMutability": "nonpayable",
      "type": "function"
    },
    {
      "constant": false,
      "inputs": [
        {
          "name": "_productId",
          "type": "uint256"
        },
        {
          "name": "_newDesc",
          "type": "string"
        },
        {
          "name": "_newPrice",
          "type": "uint256"
        }
      ],
      "name": "updateProduct",
      "outputs": [],
      "payable": false,
      "stateMutability": "nonpayable",
      "type": "function"
    },
    {
      "constant": true,
      "inputs": [
        {
          "name": "_id",
          "type": "uint256"
        }
      ],
      "name": "productInfo",
      "outputs": [
        {
          "name": "",
          "type": "uint256"
        },
        {
          "name": "",
          "type": "string"
        },
        {
          "name": "",
          "type": "address"
        },
        {
          "name": "",
          "type": "uint256"
        }
      ],
      "payable": false,
      "stateMutability": "view",
      "type": "function"
    },
    {
      "constant": true,
      "inputs": [],
      "name": "getProducts",
      "outputs": [
        {
          "name": "",
          "type": "uint256[]"
        },
        {
          "name": "",
          "type": "string[]"
        },
        {
          "name": "",
          "type": "address[]"
        },
        {
          "name": "",
          "type": "uint256[]"
        }
      ],
      "payable": false,
      "stateMutability": "view",
      "type": "function"
    },
    {
      "constant": true,
      "inputs": [
        {
          "name": "_id",
          "type": "uint256"
        }
      ],
      "name": "isProductInHistory",
      "outputs": [
        {
          "name": "",
          "type": "bool"
        }
      ],
      "payable": false,
      "stateMutability": "view",
      "type": "function"
    },
    {
      "constant": false,
      "inputs": [
        {
          "name": "_productId",
          "type": "uint256"
        },
        {
          "name": "_stageDesc",
          "type": "string[]"
        },
        {
          "name": "_dates",
          "type": "string[]"
        }
      ],
      "name": "addNewHistory",
      "outputs": [],
      "payable": false,
      "stateMutability": "nonpayable",
      "type": "function"
    },
    {
      "constant": false,
      "inputs": [
        {
          "name": "_productId",
          "type": "uint256"
        },
        {
          "name": "_stageDesc",
          "type": "string[]"
        },
        {
          "name": "_dates",
          "type": "string[]"
        }
      ],
      "name": "addToHistory",
      "outputs": [
        {
          "name": "",
          "type": "bool"
        }
      ],
      "payable": false,
      "stateMutability": "nonpayable",
      "type": "function"
    },
    {
      "constant": true,
      "inputs": [
        {
          "name": "_id",
          "type": "uint256"
        }
      ],
      "name": "HistoryInfo",
      "outputs": [
        {
          "name": "",
          "type": "uint256"
        },
        {
          "name": "",
          "type": "string[]"
        },
        {
          "name": "",
          "type": "string[]"
        },
        {
          "name": "",
          "type": "address"
        }
      ],
      "payable": false,
      "stateMutability": "view",
      "type": "function"
    },
    {
      "constant": true,
      "inputs": [],
      "name": "getHistories",
      "outputs": [
        {
          "name": "",
          "type": "string[]"
        },
        {
          "name": "",
          "type": "string[][]"
        },
        {
          "name": "",
          "type": "string[][]"
        },
        {
          "name": "",
          "type": "address[]"
        }
      ],
      "payable": false,
      "stateMutability": "view",
      "type": "function"
    },
    {
      "constant": false,
      "inputs": [
        {
          "name": "_productsIds",
          "type": "uint256[]"
        },
        {
          "name": "_stageDesc",
          "type": "string"
        }
      ],
      "name": "addToStage",
      "outputs": [],
      "payable": false,
      "stateMutability": "nonpayable",
      "type": "function"
    },
    {
      "constant": true,
      "inputs": [
        {
          "name": "_id",
          "type": "uint256"
        }
      ],
      "name": "stageInfo",
      "outputs": [
        {
          "name": "",
          "type": "uint256"
        },
        {
          "name": "",
          "type": "uint256[]"
        },
        {
          "name": "",
          "type": "string"
        },
        {
          "name": "",
          "type": "address"
        }
      ],
      "payable": false,
      "stateMutability": "view",
      "type": "function"
    },
    {
      "constant": true,
      "inputs": [],
      "name": "getStages",
      "outputs": [
        {
          "name": "",
          "type": "uint256[]"
        },
        {
          "name": "",
          "type": "uint256[][]"
        },
        {
          "name": "",
          "type": "string[]"
        },
        {
          "name": "",
          "type": "address[]"
        }
      ],
      "payable": false,
      "stateMutability": "view",
      "type": "function"
    }
  ],
  "bytecode": "0x60806040526000600a556000600b556000600c556000600d5534801561002457600080fd5b50613590806100346000396000f3fe608060405260043610610112576000357c0100000000000000000000000000000000000000000000000000000000900463ffffffff168063243af193146101175780632a0e7b6214610157578063362342e4146101855780633f1a51b8146101c257806353488deb146101eb5780636f77926b14610214578063712611dd1461025157806379655bd01461028e57806384d5f424146102bc578063a2c0fb24146102e5578063b15247d914610322578063bb119f6e1461034b578063c29b2f201461038b578063d73dde67146103b9578063d9db17de146103f6578063e52c2eca14610436578063e63007fb14610473578063f30b3dac1461049c578063f6881ca6146104c5578063ffdc6a7a14610502575b600080fd5b34801561012357600080fd5b5061013e60048036036101399190810190612735565b61053f565b60405161014e94939291906131e4565b60405180910390f35b34801561016357600080fd5b5061016c61073a565b60405161017c9493929190612eb4565b60405180910390f35b34801561019157600080fd5b506101ac60048036036101a79190810190612735565b6109d0565b6040516101b99190613176565b60405180910390f35b3480156101ce57600080fd5b506101e960048036036101e491908101906125e0565b6109f3565b005b3480156101f757600080fd5b50610212600480360361020d91908101906127dd565b610a8b565b005b34801561022057600080fd5b5061023b600480360361023691908101906125b7565b610c20565b6040516102489190613014565b60405180910390f35b34801561025d57600080fd5b5061027860048036036102739190810190612735565b610d26565b6040516102859190613176565b60405180910390f35b34801561029a57600080fd5b506102a3610d49565b6040516102b39493929190612f37565b60405180910390f35b3480156102c857600080fd5b506102e360048036036102de919081019061275e565b610f5f565b005b3480156102f157600080fd5b5061030c60048036036103079190810190612735565b611187565b6040516103199190613176565b60405180910390f35b34801561032e57600080fd5b50610349600480360361034491908101906126a0565b6111aa565b005b34801561035757600080fd5b50610372600480360361036d9190810190612735565b61137c565b6040516103829493929190613237565b60405180910390f35b34801561039757600080fd5b506103a0611556565b6040516103b09493929190612f98565b60405180910390f35b3480156103c557600080fd5b506103e060048036036103db9190810190612735565b611765565b6040516103ed9190613176565b60405180910390f35b34801561040257600080fd5b5061041d60048036036104189190810190612735565b611788565b60405161042d9493929190613191565b60405180910390f35b34801561044257600080fd5b5061045d60048036036104589190810190612735565b611a5b565b60405161046a9190613176565b60405180910390f35b34801561047f57600080fd5b5061049a60048036036104959190810190612634565b611a7e565b005b3480156104a857600080fd5b506104c360048036036104be91908101906126f4565b611c63565b005b3480156104d157600080fd5b506104ec60048036036104e7919081019061275e565b611dfe565b6040516104f99190612ff9565b60405180910390f35b34801561050e57600080fd5b5061052960048036036105249190810190612735565b611f25565b6040516105369190612ff9565b60405180910390f35b60006060806000600b54851115151561058d576040517f08c379a0000000000000000000000000000000000000000000000000000000008152600401610584906130b6565b60405180910390fd5b610595611f7d565b6002600087815260200190815260200160002060806040519081016040529081600082015481526020016001820180548060200260200160405190810160405280929190818152602001828054801561060d57602002820191906000526020600020905b8154815260200190600101908083116105f9575b50505050508152602001600282018054600181600116156101000203166002900480601f0160208091040260200160405190810160405280929190818152602001828054600181600116156101000203166002900480156106af5780601f10610684576101008083540402835291602001916106af565b820191906000526020600020905b81548152906001019060200180831161069257829003601f168201915b505050505081526020016003820160009054906101000a900473ffffffffffffffffffffffffffffffffffffffff1673ffffffffffffffffffffffffffffffffffffffff1673ffffffffffffffffffffffffffffffffffffffff1681525050905080600001518160200151826040015183606001518292508191509450945094509450509193509193565b6060806060806060600580548060200260200160405190810160405280929190818152602001828054801561078e57602002820191906000526020600020905b81548152602001906001019080831161077a575b50505050509050606081516040519080825280602002602001820160405280156107c75781602001602082028038833980820191505090505b5090506060825160405190808252806020026020018201604052801561080157816020015b60608152602001906001900390816107ec5790505b5090506060835160405190808252806020026020018201604052801561083b57816020015b60608152602001906001900390816108265790505b5090506060845160405190808252806020026020018201604052801561087557816020015b60608152602001906001900390816108605790505b509050606085516040519080825280602002602001820160405280156108aa5781602001602082028038833980820191505090505b50905060008090505b86518110156109b7576108c581611788565b82925081915089858151811015156108d957fe5b90602001906020020188868151811015156108f057fe5b906020019060200201888781518110151561090757fe5b906020019060200201888881518110151561091e57fe5b9060200190602002018473ffffffffffffffffffffffffffffffffffffffff1673ffffffffffffffffffffffffffffffffffffffff168152508490528490528481525050505050610985868281518110151561097657fe5b9060200190602002015161137c565b90919250829250905050858281518110151561099d57fe5b9060200190602002018190525080806001019150506108b3565b5083838383995099509950995050505050505090919293565b6005818154811015156109df57fe5b906000526020600020016000915090505481565b6000600960008473ffffffffffffffffffffffffffffffffffffffff1673ffffffffffffffffffffffffffffffffffffffff168152602001908152602001600020905081816000019080519060200190610a4e929190611fbc565b507fac6ec2f3cde22b84535f0bb70aa5a3d4e365af8847b387e4598b86913b19bab583604051610a7e9190612e86565b60405180910390a1505050565b6001825110151515610ad2576040517f08c379a0000000000000000000000000000000000000000000000000000000008152600401610ac990613076565b60405180910390fd5b600081111515610b17576040517f08c379a0000000000000000000000000000000000000000000000000000000008152600401610b0e90613056565b60405180910390fd5b600080600085815260200190815260200160002090503373ffffffffffffffffffffffffffffffffffffffff168160030160009054906101000a900473ffffffffffffffffffffffffffffffffffffffff1673ffffffffffffffffffffffffffffffffffffffff16141515610bc1576040517f08c379a0000000000000000000000000000000000000000000000000000000008152600401610bb8906130d6565b60405180910390fd5b82816001019080519060200190610bd9929190611fbc565b508181600201819055507f2502003daf5012f303aa6e68dcd311abe54ba3b5afe1c5721ae2ff76e3e85edf84604051610c129190613283565b60405180910390a150505050565b6060610c2a61203c565b600960008473ffffffffffffffffffffffffffffffffffffffff1673ffffffffffffffffffffffffffffffffffffffff16815260200190815260200160002060206040519081016040529081600082018054600181600116156101000203166002900480601f016020809104026020016040519081016040528092919081815260200182805460018160011615610100020316600290048015610d0e5780601f10610ce357610100808354040283529160200191610d0e565b820191906000526020600020905b815481529060010190602001808311610cf157829003601f168201915b50505050508152505090508060000151915050919050565b600181815481101515610d3557fe5b906000526020600020016000915090505481565b60608060608060606003805480602002602001604051908101604052809291908181526020018280548015610d9d57602002820191906000526020600020905b815481526020019060010190808311610d89575b5050505050905060608151604051908082528060200260200182016040528015610dd65781602001602082028038833980820191505090505b50905060608251604051908082528060200260200182016040528015610e1057816020015b6060815260200190600190039081610dfb5790505b50905060608351604051908082528060200260200182016040528015610e4a57816020015b6060815260200190600190039081610e355790505b50905060608451604051908082528060200260200182016040528015610e7f5781602001602082028038833980820191505090505b50905060008090505b8551811015610f4757610e9a8161053f565b8292508191508885815181101515610eae57fe5b9060200190602002018886815181101515610ec557fe5b9060200190602002018887815181101515610edc57fe5b9060200190602002018888815181101515610ef357fe5b9060200190602002018473ffffffffffffffffffffffffffffffffffffffff1673ffffffffffffffffffffffffffffffffffffffff1681525084905284905284815250505050508080600101915050610e88565b50848383839850985098509850505050505090919293565b60008310151515610fa5576040517f08c379a0000000000000000000000000000000000000000000000000000000008152600401610f9c90613156565b60405180910390fd5b610fae83611f25565b1515611135576080604051908101604052808481526020018381526020018281526020013373ffffffffffffffffffffffffffffffffffffffff1681525060046000600c548152602001908152602001600020600082015181600001556020820151816001019080519060200190611027929190612050565b506040820151816002019080519060200190611044929190612050565b5060608201518160030160006101000a81548173ffffffffffffffffffffffffffffffffffffffff021916908373ffffffffffffffffffffffffffffffffffffffff1602179055509050506005600c5490806001815401808255809150509060018203906000526020600020016000909192909190915055506006839080600181540180825580915050906001820390600052602060002001600090919290919091505550600c600081548092919060010191905055507f85df17fa01db593cbf895b0165756515b33fb56e9d3e9af14eb737541265b23660405161112890613116565b60405180910390a1611182565b6000611142848484611dfe565b90508015611180577f85df17fa01db593cbf895b0165756515b33fb56e9d3e9af14eb737541265b23660405161117790613116565b60405180910390a15b505b505050565b60038181548110151561119657fe5b906000526020600020016000915090505481565b60018251101515156111f1576040517f08c379a00000000000000000000000000000000000000000000000000000000081526004016111e890613076565b60405180910390fd5b600081111515611236576040517f08c379a000000000000000000000000000000000000000000000000000000000815260040161122d90613096565b60405180910390fd5b608060405190810160405280600a5481526020018381526020018281526020013373ffffffffffffffffffffffffffffffffffffffff16815250600080600a5481526020019081526020016000206000820151816000015560208201518160010190805190602001906112aa9291906120b0565b506040820151816002015560608201518160030160006101000a81548173ffffffffffffffffffffffffffffffffffffffff021916908373ffffffffffffffffffffffffffffffffffffffff1602179055509050506001600a549080600181540180825580915050906001820390600052602060002001600090919290919091505550600a600081548092919060010191905055507fa0ecd9c452dc8233eea5ff75c2be4760d1cd2ff3edd236618fbe6403dc07c48a600a546040516113709190613176565b60405180910390a15050565b60006060600080600a5485111515156113ca576040517f08c379a00000000000000000000000000000000000000000000000000000000081526004016113c190613036565b60405180910390fd5b6113d2612130565b6000808781526020019081526020016000206080604051908101604052908160008201548152602001600182018054600181600116156101000203166002900480601f0160208091040260200160405190810160405280929190818152602001828054600181600116156101000203166002900480156114935780601f1061146857610100808354040283529160200191611493565b820191906000526020600020905b81548152906001019060200180831161147657829003601f168201915b50505050508152602001600282015481526020016003820160009054906101000a900473ffffffffffffffffffffffffffffffffffffffff1673ffffffffffffffffffffffffffffffffffffffff1673ffffffffffffffffffffffffffffffffffffffff168152505090508060000151816020015160008089815260200190815260200160002060030160009054906101000a900473ffffffffffffffffffffffffffffffffffffffff1683604001518292509450945094509450509193509193565b606080606080606060018054806020026020016040519081016040528092919081815260200182805480156115aa57602002820191906000526020600020905b815481526020019060010190808311611596575b50505050509050606081516040519080825280602002602001820160405280156115e35781602001602082028038833980820191505090505b5090506060825160405190808252806020026020018201604052801561161d57816020015b60608152602001906001900390816116085790505b509050606083516040519080825280602002602001820160405280156116525781602001602082028038833980820191505090505b509050606084516040519080825280602002602001820160405280156116875781602001602082028038833980820191505090505b50905060008090505b855181101561174d576116a28161137c565b82925088858151811015156116b357fe5b90602001906020020188868151811015156116ca57fe5b90602001906020020188878151811015156116e157fe5b90602001906020020188888151811015156116f857fe5b906020019060200201848152508473ffffffffffffffffffffffffffffffffffffffff1673ffffffffffffffffffffffffffffffffffffffff1681525084905284815250505050508080600101915050611690565b50838383839850985098509850505050505090919293565b60088181548110151561177457fe5b906000526020600020016000915090505481565b60006060806000600c5485111515156117d6576040517f08c379a00000000000000000000000000000000000000000000000000000000081526004016117cd90613136565b60405180910390fd5b6117de61216f565b60046000878152602001908152602001600020608060405190810160405290816000820154815260200160018201805480602002602001604051908101604052809291908181526020016000905b828210156118e8578382906000526020600020018054600181600116156101000203166002900480601f0160208091040260200160405190810160405280929190818152602001828054600181600116156101000203166002900480156118d45780601f106118a9576101008083540402835291602001916118d4565b820191906000526020600020905b8154815290600101906020018083116118b757829003601f168201915b50505050508152602001906001019061182c565b50505050815260200160028201805480602002602001604051908101604052809291908181526020016000905b828210156119d1578382906000526020600020018054600181600116156101000203166002900480601f0160208091040260200160405190810160405280929190818152602001828054600181600116156101000203166002900480156119bd5780601f10611992576101008083540402835291602001916119bd565b820191906000526020600020905b8154815290600101906020018083116119a057829003601f168201915b505050505081526020019060010190611915565b5050505081526020016003820160009054906101000a900473ffffffffffffffffffffffffffffffffffffffff1673ffffffffffffffffffffffffffffffffffffffff1673ffffffffffffffffffffffffffffffffffffffff1681525050905080600001518160200151826040015183606001518292508191509450945094509450509193509193565b600681815481101515611a6a57fe5b906000526020600020016000915090505481565b6001815110151515611ac5576040517f08c379a0000000000000000000000000000000000000000000000000000000008152600401611abc906130f6565b60405180910390fd5b60008251111515611b0b576040517f08c379a0000000000000000000000000000000000000000000000000000000008152600401611b0290613096565b60405180910390fd5b608060405190810160405280600b5481526020018381526020018281526020013373ffffffffffffffffffffffffffffffffffffffff1681525060026000600b548152602001908152602001600020600082015181600001556020820151816001019080519060200190611b809291906121ae565b506040820151816002019080519060200190611b9d9291906120b0565b5060608201518160030160006101000a81548173ffffffffffffffffffffffffffffffffffffffff021916908373ffffffffffffffffffffffffffffffffffffffff1602179055509050506003600b549080600181540180825580915050906001820390600052602060002001600090919290919091505550600b600081548092919060010191905055507f4cc60a5ec8fb5bfb3ec397505a58e8cea4d91a7e74b9e01611588ad65c20bbe282604051611c579190612f15565b60405180910390a15050565b600d548160000181815250508060076000600d548152602001908152602001600020600082015181600001556020820151816001019080519060200190611cab9291906120b0565b506040820151816002019080519060200190611cc89291906120b0565b506060820151816003019080519060200190611ce59291906120b0565b506080820151816004019080519060200190611d029291906120b0565b5060a0820151816005019080519060200190611d1f9291906120b0565b5060c0820151816006015560e082015181600701556101008201518160080160006101000a81548173ffffffffffffffffffffffffffffffffffffffff021916908373ffffffffffffffffffffffffffffffffffffffff1602179055509050506008600d549080600181540180825580915050906001820390600052602060002001600090919290919091505550600d600081548092919060010191905055507f931ab3a76dd4c6dcc47b8c61f316716d89ceac393090a0b39688e61e555fca716001600d5403604051611df39190613176565b60405180910390a150565b600080600580549050905060008090505b81811015611f17578560046000838152602001908152602001600020600001541415611f0a57600060046000838152602001908152602001600020905080600101866000815181101515611e5f57fe5b906020019060200201519080600181540180825580915050906001820390600052602060002001600090919290919091509080519060200190611ea3929190611fbc565b505080600201856000815181101515611eb857fe5b906020019060200201519080600181540180825580915050906001820390600052602060002001600090919290919091509080519060200190611efc929190611fbc565b505060019350505050611f1e565b8080600101915050611e0f565b5060009150505b9392505050565b600080600090505b600680549050811015611f725782600682815481101515611f4a57fe5b90600052602060002001541415611f65576001915050611f78565b8080600101915050611f2d565b50600090505b919050565b608060405190810160405280600081526020016060815260200160608152602001600073ffffffffffffffffffffffffffffffffffffffff1681525090565b828054600181600116156101000203166002900490600052602060002090601f016020900481019282601f10611ffd57805160ff191683800117855561202b565b8280016001018555821561202b579182015b8281111561202a57825182559160200191906001019061200f565b5b50905061203891906121fb565b5090565b602060405190810160405280606081525090565b82805482825590600052602060002090810192821561209f579160200282015b8281111561209e57825182908051906020019061208e9291906120b0565b5091602001919060010190612070565b5b5090506120ac9190612220565b5090565b828054600181600116156101000203166002900490600052602060002090601f016020900481019282601f106120f157805160ff191683800117855561211f565b8280016001018555821561211f579182015b8281111561211e578251825591602001919060010190612103565b5b50905061212c91906121fb565b5090565b608060405190810160405280600081526020016060815260200160008152602001600073ffffffffffffffffffffffffffffffffffffffff1681525090565b608060405190810160405280600081526020016060815260200160608152602001600073ffffffffffffffffffffffffffffffffffffffff1681525090565b8280548282559060005260206000209081019282156121ea579160200282015b828111156121e95782518255916020019190600101906121ce565b5b5090506121f791906121fb565b5090565b61221d91905b80821115612219576000816000905550600101612201565b5090565b90565b61224991905b80821115612245576000818161223c919061224c565b50600101612226565b5090565b90565b50805460018160011615610100020316600290046000825580601f106122725750612291565b601f01602090049060005260206000209081019061229091906121fb565b5b50565b60006122a082356134e7565b905092915050565b600082601f83011215156122bb57600080fd5b81356122ce6122c9826132de565b6132b1565b9150818183526020840193506020810190508360005b8381101561231457813586016122fa88826123a3565b8452602084019350602083019250506001810190506122e4565b5050505092915050565b600082601f830112151561233157600080fd5b813561234461233f82613306565b6132b1565b9150818183526020840193506020810190508385602084028201111561236957600080fd5b60005b83811015612399578161237f88826125a3565b84526020840193506020830192505060018101905061236c565b5050505092915050565b600082601f83011215156123b657600080fd5b81356123c96123c48261332e565b6132b1565b915080825260208301602083018583830111156123e557600080fd5b6123f0838284613503565b50505092915050565b600082601f830112151561240c57600080fd5b813561241f61241a8261335a565b6132b1565b9150808252602083016020830185838301111561243b57600080fd5b612446838284613503565b50505092915050565b6000610120828403121561246257600080fd5b61246d6101206132b1565b9050600061247d848285016125a3565b600083015250602082013567ffffffffffffffff81111561249d57600080fd5b6124a9848285016123a3565b602083015250604082013567ffffffffffffffff8111156124c957600080fd5b6124d5848285016123a3565b604083015250606082013567ffffffffffffffff8111156124f557600080fd5b612501848285016123a3565b606083015250608082013567ffffffffffffffff81111561252157600080fd5b61252d848285016123a3565b60808301525060a082013567ffffffffffffffff81111561254d57600080fd5b612559848285016123a3565b60a08301525060c061256d848285016125a3565b60c08301525060e0612581848285016125a3565b60e08301525061010061259684828501612294565b6101008301525092915050565b60006125af82356134f9565b905092915050565b6000602082840312156125c957600080fd5b60006125d784828501612294565b91505092915050565b600080604083850312156125f357600080fd5b600061260185828601612294565b925050602083013567ffffffffffffffff81111561261e57600080fd5b61262a858286016123f9565b9150509250929050565b6000806040838503121561264757600080fd5b600083013567ffffffffffffffff81111561266157600080fd5b61266d8582860161231e565b925050602083013567ffffffffffffffff81111561268a57600080fd5b612696858286016123f9565b9150509250929050565b600080604083850312156126b357600080fd5b600083013567ffffffffffffffff8111156126cd57600080fd5b6126d9858286016123f9565b92505060206126ea858286016125a3565b9150509250929050565b60006020828403121561270657600080fd5b600082013567ffffffffffffffff81111561272057600080fd5b61272c8482850161244f565b91505092915050565b60006020828403121561274757600080fd5b6000612755848285016125a3565b91505092915050565b60008060006060848603121561277357600080fd5b6000612781868287016125a3565b935050602084013567ffffffffffffffff81111561279e57600080fd5b6127aa868287016122a8565b925050604084013567ffffffffffffffff8111156127c757600080fd5b6127d3868287016122a8565b9150509250925092565b6000806000606084860312156127f257600080fd5b6000612800868287016125a3565b935050602084013567ffffffffffffffff81111561281d57600080fd5b612829868287016123f9565b925050604061283a868287016125a3565b9150509250925092565b61284d8161349f565b82525050565b600061285e826133e1565b80845260208401935061287083613386565b60005b828110156128a257612886868351612844565b61288f82613444565b9150602086019550600181019050612873565b50849250505092915050565b60006128b9826133ec565b808452602084019350836020820285016128d285613393565b60005b8481101561290b5783830388526128ed8383516129f8565b92506128f882613451565b91506020880197506001810190506128d5565b508196508694505050505092915050565b6000612927826133f7565b80845260208401935083602082028501612940856133a0565b60005b8481101561297957838303885261295b838351612ac1565b92506129668261345e565b9150602088019750600181019050612943565b508196508694505050505092915050565b60006129958261340d565b808452602084019350836020820285016129ae856133ba565b60005b848110156129e75783830388526129c9838351612b61565b92506129d482613478565b91506020880197506001810190506129b1565b508196508694505050505092915050565b6000612a0382613402565b80845260208401935083602082028501612a1c856133ad565b60005b84811015612a55578383038852612a37838351612b61565b9250612a428261346b565b9150602088019750600181019050612a1f565b508196508694505050505092915050565b6000612a7182613423565b808452602084019350612a83836133d4565b60005b82811015612ab557612a99868351612e77565b612aa282613492565b9150602086019550600181019050612a86565b50849250505092915050565b6000612acc82613418565b808452602084019350612ade836133c7565b60005b82811015612b1057612af4868351612e77565b612afd82613485565b9150602086019550600181019050612ae1565b50849250505092915050565b612b25816134b1565b82525050565b6000612b3682613439565b808452612b4a816020860160208601613512565b612b5381613545565b602085010191505092915050565b6000612b6c8261342e565b808452612b80816020860160208601613512565b612b8981613545565b602085010191505092915050565b6000601682527f50726f6475637420646f6573206e6f74206578697374000000000000000000006020830152604082019050919050565b6000602282527f4e6577207072696365206d75737420626520686967686572207468616e207a6560208301527f726f0000000000000000000000000000000000000000000000000000000000006040830152606082019050919050565b6000600c82527f496e76616c6964206e616d6500000000000000000000000000000000000000006020830152604082019050919050565b6000601e82527f5072696365206d75737420626520686967686572207468616e207a65726f00006020830152604082019050919050565b6000601c82527f50726f6475637420737461676520646f6573206e6f74206578697374000000006020830152604082019050919050565b6000602582527f4f6e6c7920746865206f776e65722063616e207570646174652074686520707260208301527f6f647563740000000000000000000000000000000000000000000000000000006040830152606082019050919050565b6000600c82527f4e616d6520696e76616c696400000000000000000000000000000000000000006020830152604082019050919050565b6000601f82527f50726f6475746f20617475616c697a61646f20636f6d20737563636573736f006020830152604082019050919050565b6000600e82527f486973746f7279207361766564210000000000000000000000000000000000006020830152604082019050919050565b6000601682527f486973746f727920646f6573206e6f74206578697374000000000000000000006020830152604082019050919050565b6000601d82527f436f6e7461207265676973747261646120636f6d207375636573736f210000006020830152604082019050919050565b6000601182527f696e76616c69642070726f6475637449640000000000000000000000000000006020830152604082019050919050565b612e80816134dd565b82525050565b6000604082019050612e9b6000830184612844565b8181036020830152612eac81612e09565b905092915050565b60006080820190508181036000830152612ece818761298a565b90508181036020830152612ee281866128ae565b90508181036040830152612ef681856128ae565b90508181036060830152612f0a8184612853565b905095945050505050565b60006020820190508181036000830152612f2f8184612a66565b905092915050565b60006080820190508181036000830152612f518187612a66565b90508181036020830152612f65818661291c565b90508181036040830152612f79818561298a565b90508181036060830152612f8d8184612853565b905095945050505050565b60006080820190508181036000830152612fb28187612a66565b90508181036020830152612fc6818661298a565b90508181036040830152612fda8185612853565b90508181036060830152612fee8184612a66565b905095945050505050565b600060208201905061300e6000830184612b1c565b92915050565b6000602082019050818103600083015261302e8184612b2b565b905092915050565b6000602082019050818103600083015261304f81612b97565b9050919050565b6000602082019050818103600083015261306f81612bce565b9050919050565b6000602082019050818103600083015261308f81612c2b565b9050919050565b600060208201905081810360008301526130af81612c62565b9050919050565b600060208201905081810360008301526130cf81612c99565b9050919050565b600060208201905081810360008301526130ef81612cd0565b9050919050565b6000602082019050818103600083015261310f81612d2d565b9050919050565b6000602082019050818103600083015261312f81612d9b565b9050919050565b6000602082019050818103600083015261314f81612dd2565b9050919050565b6000602082019050818103600083015261316f81612e40565b9050919050565b600060208201905061318b6000830184612e77565b92915050565b60006080820190506131a66000830187612e77565b81810360208301526131b8818661298a565b905081810360408301526131cc818561298a565b90506131db6060830184612844565b95945050505050565b60006080820190506131f96000830187612e77565b818103602083015261320b8186612a66565b9050818103604083015261321f8185612b2b565b905061322e6060830184612844565b95945050505050565b600060808201905061324c6000830187612e77565b818103602083015261325e8186612b2b565b905061326d6040830185612844565b61327a6060830184612e77565b95945050505050565b60006040820190506132986000830184612e77565b81810360208301526132a981612d64565b905092915050565b6000604051905081810181811067ffffffffffffffff821117156132d457600080fd5b8060405250919050565b600067ffffffffffffffff8211156132f557600080fd5b602082029050602081019050919050565b600067ffffffffffffffff82111561331d57600080fd5b602082029050602081019050919050565b600067ffffffffffffffff82111561334557600080fd5b601f19601f8301169050602081019050919050565b600067ffffffffffffffff82111561337157600080fd5b601f19601f8301169050602081019050919050565b6000602082019050919050565b6000602082019050919050565b6000602082019050919050565b6000602082019050919050565b6000602082019050919050565b6000602082019050919050565b6000602082019050919050565b600081519050919050565b600081519050919050565b600081519050919050565b600081519050919050565b600081519050919050565b600081519050919050565b600081519050919050565b600081519050919050565b600081519050919050565b6000602082019050919050565b6000602082019050919050565b6000602082019050919050565b6000602082019050919050565b6000602082019050919050565b6000602082019050919050565b6000602082019050919050565b60006134aa826134bd565b9050919050565b60008115159050919050565b600073ffffffffffffffffffffffffffffffffffffffff82169050919050565b6000819050919050565b60006134f2826134bd565b9050919050565b6000819050919050565b82818337600083830152505050565b60005b83811015613530578082015181840152602081019050613515565b8381111561353f576000848401525b50505050565b6000601f19601f830116905091905056fea265627a7a72305820472c7dc9085e2362998b35c190e734d5fb9220ebd98ba678266993f01feeddc76c6578706572696d656e74616cf50037",
  "source": "pragma solidity ^0.5.0;\r\npragma experimental ABIEncoderV2;\r\n\r\ncontract MyContract {\r\n\r\n    // evento para notificar o cliente que a conta foi atualizada\r\n    event userRegisted(address _addr, string newEmail);\r\n    // evento para notificar o cliente que o produto foi registrado\r\n    event productRegistered(uint id);\r\n    // evento para notificar o cliente de que a Etapa foi registrada\r\n    event StageRegistered(uint[]);\r\n    // evento para notificar o cliente de que um histrico foi registrado\r\n    event historyRegistered(string _msg);\r\n    // evento para notificar o cliente de que um produto foi atualizado\r\n    event productUpdated(uint _productId, string _msg);\r\n    \r\n    event veiculoRegistered(uint _veiculoId);\r\n\r\n\r\n    // estrutura para manter dados do usurio\r\n    struct User {\r\n        string email;\r\n    }\r\n\r\n    // estrutura para registar o estagio de um produto\r\n    struct Stage {\r\n        uint id;\r\n        uint[] products;\r\n        string desc;\r\n        address owner;\r\n    }\r\n\r\n    // estrutura para manter dados do produto\r\n    struct Product {\r\n        uint id;\r\n        string desc;\r\n        uint price;\r\n        address owner;\r\n    }\r\n\r\n    // estrutura para manter dados de um histrico\r\n    struct History {\r\n        uint productId;\r\n        string[] stageDesc;\r\n        string[] dates;\r\n        address productOwner;\r\n    }\r\n\r\n    // estrutura para manter os dados de um veculo\r\n    struct Veiculo\r\n    {\r\n        uint id;\r\n        string placa;\r\n        string renavam;\r\n        string chassi;\r\n        string cor;\r\n        string modelo;\r\n        uint anoFabricacao;\r\n        uint potencia;\r\n        address productOwner;\r\n    }\r\n\r\n    // mapeia um id a um produto\r\n    mapping (uint => Product) products;\r\n    uint[] public productsIds;\r\n\r\n    // mapeia um id a uma etapa\r\n    mapping(uint => Stage) stages;\r\n    uint[] public stagesIds;\r\n\r\n    mapping (uint => History) histories;\r\n    uint[] public historiesIds;\r\n    uint[] public productsInHistory;\r\n\r\n    //mapeia um id a um veculo\r\n    mapping (uint => Veiculo) veiculos;\r\n    uint[] public veiculosIds;\r\n\r\n    // mapeia endereo do usurio a sua estrutura\r\n    mapping (address => User) users;\r\n\r\n    // state variables\r\n    uint256 private lastId = 0;\r\n    uint256 private stagesId = 0;\r\n    uint256 private historyId = 0;\r\n    \r\n    uint256 private veiculoId = 0;\r\n\r\n    // funo para cadastrar conta do usurio\r\n    function setUser(address _addr, string memory _email) public {\r\n        User storage user = users[_addr];\r\n        user.email = _email;\r\n\r\n        // notifica o cliente atravs do evento\r\n        emit userRegisted(_addr, \"Conta registrada com sucesso!\");\r\n    }\r\n\r\n    // funo para resgatar dados do usurio\r\n    function getUser(address _addr) public view returns(string memory) {\r\n        User memory user = users[_addr];\r\n        return (user.email);\r\n    }\r\n\r\n    // funo para cadastrar um veiculo\r\n    function addVeiculo(Veiculo memory _veiculo) public {\r\n        //fazer as validaes de campos obrigatrios \r\n\r\n        _veiculo.id = veiculoId;\r\n\r\n        veiculos[veiculoId] = _veiculo;\r\n        veiculosIds.push(veiculoId);\r\n\r\n        veiculoId++;\r\n        emit veiculoRegistered(veiculoId - 1);\r\n    }\r\n\r\n    // funo para cadastrar um produto\r\n    function addProduct(string memory _desc, uint _price) public {\r\n        require(bytes(_desc).length >= 1, \"Invalid name\");\r\n        require(_price > 0, \"Price must be higher than zero\");\r\n\r\n        products[lastId] = Product(lastId, _desc, _price, msg.sender);\r\n        productsIds.push(lastId);\r\n        lastId++;\r\n        emit productRegistered(lastId);\r\n    }\r\n\r\n    function updateProduct(uint _productId, string memory _newDesc, uint _newPrice) public {\r\n        require(bytes(_newDesc).length >= 1, \"Invalid name\");\r\n        require(_newPrice > 0, \"New price must be higher than zero\");\r\n\r\n        Product storage prod = products[_productId];\r\n\r\n        require(prod.owner == msg.sender, \"Only the owner can update the product\");\r\n        prod.desc = _newDesc;\r\n        prod.price = _newPrice;\r\n\r\n        emit productUpdated(_productId, \"Produto atualizado com successo\");\r\n    }\r\n\r\n    // funo para resgatar info de um produto\r\n    function productInfo(uint _id) public view\r\n        returns(\r\n            uint,\r\n            string memory,\r\n            address,\r\n            uint\r\n        ) {\r\n            require(_id <= lastId, \"Product does not exist\");\r\n\r\n            Product memory product = products[_id];\r\n            \r\n            return (\r\n                product.id,\r\n                product.desc,\r\n                products[_id].owner,\r\n                product.price\r\n            );\r\n    }\r\n\r\n    // funo que retorna todos os produtos de um usurio\r\n    function getProducts() public view returns(uint[] memory, string[] memory, address[] memory, uint[] memory) {\r\n\r\n        uint[] memory ids = productsIds;\r\n\r\n        uint[] memory idsProducts = new uint[](ids.length);\r\n        string[] memory names = new string[](ids.length);\r\n        address[] memory owners = new address[](ids.length);\r\n        uint[] memory prices = new uint[](ids.length);\r\n\r\n        for (uint i = 0; i < ids.length; i++) {\r\n            (idsProducts[i], names[i], owners[i], prices[i]) = productInfo(i);\r\n        }\r\n\r\n        return (idsProducts, names, owners, prices);\r\n    }\r\n\r\n    function isProductInHistory(uint _id) public view returns (bool) {\r\n        for (uint i = 0; i < productsInHistory.length; i++) {\r\n            if (productsInHistory[i] == _id)\r\n                return true;\r\n        }\r\n        return false;\r\n    }\r\n\r\n    // funo para adicionar o histrico de um produto\r\n    function addNewHistory(uint _productId, string[] memory _stageDesc, string[] memory _dates) public {\r\n        require(_productId >= 0, \"invalid productId\");\r\n\r\n        if (!isProductInHistory(_productId)) {\r\n            histories[historyId] = History(_productId, _stageDesc, _dates, msg.sender);\r\n            historiesIds.push(historyId);\r\n            productsInHistory.push(_productId);\r\n            historyId++;\r\n            emit historyRegistered(\"History saved!\");\r\n        } else {\r\n            bool added = addToHistory(_productId, _stageDesc, _dates);\r\n            if (added) {\r\n                emit historyRegistered(\"History saved!\");\r\n            }\r\n        }\r\n    }\r\n\r\n    function addToHistory(uint _productId, string[] memory _stageDesc, string[] memory _dates) public returns (bool) {\r\n        uint size = historiesIds.length;\r\n        for (uint i = 0; i < size; i++) {\r\n            if (histories[i].productId == _productId) {\r\n                History storage his = histories[i];\r\n                his.stageDesc.push(_stageDesc[0]);\r\n                his.dates.push(_dates[0]);\r\n                return true;\r\n            }\r\n        }\r\n        return false;\r\n    }\r\n\r\n    function HistoryInfo(uint _id) public view returns (uint, string[] memory, string[] memory, address) {\r\n        require(_id <= historyId, \"History does not exist\");\r\n\r\n        History memory his = histories[_id];\r\n        return (\r\n            his.productId,\r\n            his.stageDesc,\r\n            his.dates,\r\n            his.productOwner\r\n        );\r\n    }\r\n\r\n    function getHistories() public view returns (string[] memory, string[][] memory, string[][] memory, address[] memory) {\r\n        uint[] memory ids = historiesIds;\r\n\r\n        uint[] memory prodsIds = new uint[](ids.length);\r\n        string[] memory productsNames = new string[](ids.length);\r\n        string[][] memory stageDesc = new string[][](ids.length);\r\n        string[][] memory dates = new string[][](ids.length);\r\n        address[] memory addrs = new address[](ids.length);\r\n\r\n        for (uint i = 0; i < ids.length; i++) {\r\n            (prodsIds[i], stageDesc[i], dates[i], addrs[i]) = HistoryInfo(i);\r\n            (, productsNames[i], ,) = productInfo(prodsIds[i]);\r\n        }\r\n\r\n        return (productsNames, stageDesc, dates, addrs);\r\n    }\r\n\r\n    // funo para adicionar produtos  um estgio\r\n    function addToStage(uint[] memory _productsIds, string memory _stageDesc) public {\r\n        require(bytes(_stageDesc).length >= 1, \"Name invalid\");\r\n        require(_productsIds.length > 0, \"Price must be higher than zero\");\r\n\r\n        stages[stagesId] = Stage(stagesId, _productsIds, _stageDesc, msg.sender);\r\n        stagesIds.push(stagesId);\r\n        stagesId++;\r\n\r\n        emit StageRegistered(_productsIds);\r\n    }\r\n\r\n    // funo para resgatar info de um estgio\r\n    function stageInfo(uint _id) public view returns (uint, uint[] memory, string memory, address) {\r\n        require(_id <= stagesId, \"Product stage does not exist\");\r\n\r\n        Stage memory stage = stages[_id];\r\n        return (stage.id, stage.products, stage.desc, stage.owner);\r\n    }\r\n\r\n    // funo que retorna todos os produtos de um usurio\r\n    function getStages() public view returns (uint[] memory, uint[][] memory, string[] memory, address[] memory) {\r\n\r\n        uint[] memory ids = stagesIds;\r\n        uint[] memory idsStages = new uint[](ids.length);\r\n        uint[][] memory prods = new uint[][](ids.length);\r\n        string[] memory prods_desc = new string[](ids.length);\r\n        address[] memory owners = new address[](ids.length);\r\n\r\n        for(uint i = 0; i < ids.length; i++) {\r\n            (idsStages[i], prods[i], prods_desc[i], owners[i]) = stageInfo(i);\r\n        }\r\n\r\n        return (ids, prods, prods_desc, owners);\r\n    }\r\n\r\n}",
  "sourcePath": "D:\\pos\\cases-com-blockchain\\trabalho-blockchain-iesb\\dapp\\contracts\\MyContract.sol",
  "compiler": {
    "name": "solc",
    "version": "0.5.0+commit.1d4f565a.Emscripten.clang"
  },
  "schemaVersion": "3.1.0",
  "updatedAt": "2020-06-10T19:47:15.815Z",
  "networkType": "ethereum",
  "devdoc": {
    "methods": {}
  },
  "userdoc": {
    "methods": {}
  }
}