{
  "contractName": "PecasProcessuais",
  "abi": [
    {
      "constant": true,
      "inputs": [
        {
          "name": "",
          "type": "uint256"
        }
      ],
      "name": "listaDeProcessos",
      "outputs": [
        {
          "name": "",
          "type": "uint256"
        }
      ],
      "payable": false,
      "stateMutability": "view",
      "type": "function"
    },
    {
      "anonymous": false,
      "inputs": [
        {
          "indexed": false,
          "name": "id",
          "type": "uint256"
        },
        {
          "indexed": false,
          "name": "hash",
          "type": "string"
        }
      ],
      "name": "PecaAdicionada",
      "type": "event"
    },
    {
      "constant": false,
      "inputs": [
        {
          "name": "numeroUnico",
          "type": "uint256"
        },
        {
          "name": "nomeDaPeca",
          "type": "string"
        },
        {
          "name": "hash",
          "type": "string"
        },
        {
          "name": "dataDeCadastro",
          "type": "string"
        }
      ],
      "name": "cadastraPeca",
      "outputs": [],
      "payable": false,
      "stateMutability": "nonpayable",
      "type": "function"
    },
    {
      "constant": true,
      "inputs": [],
      "name": "listaProcessos",
      "outputs": [
        {
          "name": "",
          "type": "uint256[]"
        },
        {
          "name": "",
          "type": "uint256[]"
        }
      ],
      "payable": false,
      "stateMutability": "view",
      "type": "function"
    },
    {
      "constant": true,
      "inputs": [
        {
          "name": "numeroUnico",
          "type": "uint256"
        }
      ],
      "name": "listaPecas",
      "outputs": [
        {
          "name": "",
          "type": "uint256[]"
        },
        {
          "name": "",
          "type": "string[]"
        },
        {
          "name": "",
          "type": "string[]"
        },
        {
          "name": "",
          "type": "string[]"
        }
      ],
      "payable": false,
      "stateMutability": "view",
      "type": "function"
    },
    {
      "constant": true,
      "inputs": [
        {
          "name": "numeroUnico",
          "type": "uint256"
        },
        {
          "name": "idDaPeca",
          "type": "uint256"
        }
      ],
      "name": "recuperaPeca",
      "outputs": [
        {
          "components": [
            {
              "name": "id",
              "type": "uint256"
            },
            {
              "name": "nome",
              "type": "string"
            },
            {
              "name": "hash",
              "type": "string"
            },
            {
              "name": "dataDeCadastro",
              "type": "string"
            }
          ],
          "name": "",
          "type": "tuple"
        }
      ],
      "payable": false,
      "stateMutability": "view",
      "type": "function"
    }
  ],
  "bytecode": "0x608060405234801561001057600080fd5b506113a4806100206000396000f3fe60806040526004361061006d576000357c0100000000000000000000000000000000000000000000000000000000900463ffffffff1680633de1da711461007257806361ca5de01461009b578063905f8c0f146100c757806398266aa8146101045780639a8ff98214610144575b600080fd5b34801561007e57600080fd5b5061009960048036036100949190810190610d01565b610181565b005b3480156100a757600080fd5b506100b06103a8565b6040516100be929190611126565b60405180910390f35b3480156100d357600080fd5b506100ee60048036036100e99190810190610dac565b6104b4565b6040516100fb91906111dd565b60405180910390f35b34801561011057600080fd5b5061012b60048036036101269190810190610cd8565b61073c565b60405161013b94939291906110c5565b60405180910390f35b34801561015057600080fd5b5061016b60048036036101669190810190610cd8565b610b7d565b60405161017891906111ff565b60405180910390f35b6000841115156101c6576040517f08c379a00000000000000000000000000000000000000000000000000000000081526004016101bd9061119d565b60405180910390fd5b600183511015151561020d576040517f08c379a00000000000000000000000000000000000000000000000000000000081526004016102049061115d565b60405180910390fd5b6001825110151515610254576040517f08c379a000000000000000000000000000000000000000000000000000000000815260040161024b9061117d565b60405180910390fd5b6000806000868152602001908152602001600020905060008180549050905060008114156102a95760018690806001815401808255809150509060018203906000526020600020016000909192909190915055505b6102b1610ba0565b608060405190810160405280838152602001878152602001868152602001858152509050828190806001815401808255809150509060018203906000526020600020906004020160009091929091909150600082015181600001556020820151816001019080519060200190610328929190610bc9565b506040820151816002019080519060200190610345929190610bc9565b506060820151816003019080519060200190610362929190610bc9565b505050507f6795ae7159da6b3818a9d555622424b59a0e5efcb73b2b959c75d6979c7fcf11828660405161039792919061121a565b60405180910390a150505050505050565b60608060606001805490506040519080825280602002602001820160405280156103e15781602001602082028038833980820191505090505b50905060008090505b60018054905081101561045557600060018281548110151561040857fe5b9060005260206000200154905060008082815260200190815260200160002080549050838381518110151561043957fe5b90602001906020020181815250505080806001019150506103ea565b50600181818054806020026020016040519081016040528092919081815260200182805480156104a457602002820191906000526020600020905b815481526020019060010190808311610490575b5050505050915092509250509091565b6104bc610ba0565b600080600085815260200190815260200160002090506000818054905011151561051b576040517f08c379a0000000000000000000000000000000000000000000000000000000008152600401610512906111bd565b60405180910390fd5b808381548110151561052957fe5b90600052602060002090600402016080604051908101604052908160008201548152602001600182018054600181600116156101000203166002900480601f0160208091040260200160405190810160405280929190818152602001828054600181600116156101000203166002900480156105e65780601f106105bb576101008083540402835291602001916105e6565b820191906000526020600020905b8154815290600101906020018083116105c957829003601f168201915b50505050508152602001600282018054600181600116156101000203166002900480601f0160208091040260200160405190810160405280929190818152602001828054600181600116156101000203166002900480156106885780601f1061065d57610100808354040283529160200191610688565b820191906000526020600020905b81548152906001019060200180831161066b57829003601f168201915b50505050508152602001600382018054600181600116156101000203166002900480601f01602080910402602001604051908101604052809291908181526020018280546001816001161561010002031660029004801561072a5780601f106106ff5761010080835404028352916020019161072a565b820191906000526020600020905b81548152906001019060200180831161070d57829003601f168201915b50505050508152505091505092915050565b60608060608060008060008781526020019081526020016000209050600081805490501115156107a1576040517f08c379a0000000000000000000000000000000000000000000000000000000008152600401610798906111bd565b60405180910390fd5b606081805490506040519080825280602002602001820160405280156107d65781602001602082028038833980820191505090505b5090506060828054905060405190808252806020026020018201604052801561081357816020015b60608152602001906001900390816107fe5790505b5090506060838054905060405190808252806020026020018201604052801561085057816020015b606081526020019060019003908161083b5790505b5090506060848054905060405190808252806020026020018201604052801561088d57816020015b60608152602001906001900390816108785790505b50905060008090505b8580549050811015610b645785818154811015156108b057fe5b90600052602060002090600402016000015485828151811015156108d057fe5b906020019060200201818152505085818154811015156108ec57fe5b90600052602060002090600402016001018054600181600116156101000203166002900480601f0160208091040260200160405190810160405280929190818152602001828054600181600116156101000203166002900480156109915780601f1061096657610100808354040283529160200191610991565b820191906000526020600020905b81548152906001019060200180831161097457829003601f168201915b505050505084828151811015156109a457fe5b9060200190602002018190525085818154811015156109bf57fe5b90600052602060002090600402016002018054600181600116156101000203166002900480601f016020809104026020016040519081016040528092919081815260200182805460018160011615610100020316600290048015610a645780601f10610a3957610100808354040283529160200191610a64565b820191906000526020600020905b815481529060010190602001808311610a4757829003601f168201915b50505050508382815181101515610a7757fe5b906020019060200201819052508581815481101515610a9257fe5b90600052602060002090600402016003018054600181600116156101000203166002900480601f016020809104026020016040519081016040528092919081815260200182805460018160011615610100020316600290048015610b375780601f10610b0c57610100808354040283529160200191610b37565b820191906000526020600020905b815481529060010190602001808311610b1a57829003601f168201915b50505050508282815181101515610b4a57fe5b906020019060200201819052508080600101915050610896565b5083838383985098509850985050505050509193509193565b600181815481101515610b8c57fe5b906000526020600020016000915090505481565b608060405190810160405280600081526020016060815260200160608152602001606081525090565b828054600181600116156101000203166002900490600052602060002090601f016020900481019282601f10610c0a57805160ff1916838001178555610c38565b82800160010185558215610c38579182015b82811115610c37578251825591602001919060010190610c1c565b5b509050610c459190610c49565b5090565b610c6b91905b80821115610c67576000816000905550600101610c4f565b5090565b90565b600082601f8301121515610c8157600080fd5b8135610c94610c8f82611277565b61124a565b91508082526020830160208301858383011115610cb057600080fd5b610cbb838284611317565b50505092915050565b6000610cd0823561130d565b905092915050565b600060208284031215610cea57600080fd5b6000610cf884828501610cc4565b91505092915050565b60008060008060808587031215610d1757600080fd5b6000610d2587828801610cc4565b945050602085013567ffffffffffffffff811115610d4257600080fd5b610d4e87828801610c6e565b935050604085013567ffffffffffffffff811115610d6b57600080fd5b610d7787828801610c6e565b925050606085013567ffffffffffffffff811115610d9457600080fd5b610da087828801610c6e565b91505092959194509250565b60008060408385031215610dbf57600080fd5b6000610dcd85828601610cc4565b9250506020610dde85828601610cc4565b9150509250929050565b6000610df3826112bd565b80845260208401935083602082028501610e0c856112a3565b60005b84811015610e45578383038852610e27838351610ee7565b9250610e32826112e9565b9150602088019750600181019050610e0f565b508196508694505050505092915050565b6000610e61826112c8565b808452602084019350610e73836112b0565b60005b82811015610ea557610e898683516110b6565b610e92826112f6565b9150602086019550600181019050610e76565b50849250505092915050565b6000610ebc826112de565b808452610ed0816020860160208601611326565b610ed981611359565b602085010191505092915050565b6000610ef2826112d3565b808452610f06816020860160208601611326565b610f0f81611359565b602085010191505092915050565b6000602082527f4e6f6d65206461207065c3a76120444556452073657220696e666f726d61646f6020830152604082019050919050565b6000602082527f48617368206461207065c3a76120444556452073657220696e666f726d61646f6020830152604082019050919050565b6000602e82527f4ec3ba6d65726f20c3ba6e69636f20646f2070726f636573736f20444556452060208301527f73657220696e666f726d61646f2e0000000000000000000000000000000000006040830152606082019050919050565b6000603282527f4e656e68756d61207065636120636164617374726164612070617261206f207060208301527f726f636573736f20696e666f726d61646f2e00000000000000000000000000006040830152606082019050919050565b600060808301600083015161105d60008601826110b6565b50602083015184820360208601526110758282610ee7565b9150506040830151848203604086015261108f8282610ee7565b915050606083015184820360608601526110a98282610ee7565b9150508091505092915050565b6110bf81611303565b82525050565b600060808201905081810360008301526110df8187610e56565b905081810360208301526110f38186610de8565b905081810360408301526111078185610de8565b9050818103606083015261111b8184610de8565b905095945050505050565b600060408201905081810360008301526111408185610e56565b905081810360208301526111548184610e56565b90509392505050565b6000602082019050818103600083015261117681610f1d565b9050919050565b6000602082019050818103600083015261119681610f54565b9050919050565b600060208201905081810360008301526111b681610f8b565b9050919050565b600060208201905081810360008301526111d681610fe8565b9050919050565b600060208201905081810360008301526111f78184611045565b905092915050565b600060208201905061121460008301846110b6565b92915050565b600060408201905061122f60008301856110b6565b81810360208301526112418184610eb1565b90509392505050565b6000604051905081810181811067ffffffffffffffff8211171561126d57600080fd5b8060405250919050565b600067ffffffffffffffff82111561128e57600080fd5b601f19601f8301169050602081019050919050565b6000602082019050919050565b6000602082019050919050565b600081519050919050565b600081519050919050565b600081519050919050565b600081519050919050565b6000602082019050919050565b6000602082019050919050565b6000819050919050565b6000819050919050565b82818337600083830152505050565b60005b83811015611344578082015181840152602081019050611329565b83811115611353576000848401525b50505050565b6000601f19601f830116905091905056fea265627a7a723058207f668eb53e00a0a6fba6d76586cd583dbe21743f1acbd9d52f9e2b173f09f4bb6c6578706572696d656e74616cf50037",
  "source": "pragma solidity ^0.5.0;\r\npragma experimental ABIEncoderV2;\r\n\r\ncontract PecasProcessuais {\r\n\r\n    mapping(uint256 => Peca[]) processos;\r\n    uint256[] public listaDeProcessos;\r\n    \r\n    struct Peca {\r\n        uint id;\r\n        string nome;\r\n        string hash;\r\n        string dataDeCadastro;\r\n    }\r\n\r\n    function cadastraPeca(uint256 numeroUnico, string memory nomeDaPeca, string memory hash, string memory dataDeCadastro) public {\r\n        require(numeroUnico > 0, \"Número único do processo DEVE ser informado.\");\r\n        require(bytes(nomeDaPeca).length >= 1, \"Nome da peça DEVE ser informado\");\r\n        require(bytes(hash).length >= 1, \"Hash da peça DEVE ser informado\");\r\n\r\n        Peca[]storage pecasDoProcesso = processos[numeroUnico];\r\n        uint idDaPeca = pecasDoProcesso.length;\r\n        if (idDaPeca == 0) {\r\n            listaDeProcessos.push(numeroUnico);\r\n        }\r\n\r\n        Peca memory novaPeca = Peca({ id: idDaPeca, nome: nomeDaPeca, hash: hash, dataDeCadastro: dataDeCadastro });\r\n        pecasDoProcesso.push(novaPeca);\r\n                \r\n        emit PecaAdicionada(idDaPeca, hash);\r\n    }\r\n\r\n    function listaProcessos() public view returns (uint256[] memory, uint[] memory) {\r\n        uint[] memory quantidadeDePecas = new uint[](listaDeProcessos.length);\r\n\r\n        for (uint i = 0; i < listaDeProcessos.length; i++) {\r\n            uint256 numeroDoProcesso = listaDeProcessos[i];\r\n            quantidadeDePecas[i] = processos[numeroDoProcesso].length;\r\n        }\r\n\r\n        return (listaDeProcessos, quantidadeDePecas);\r\n    }\r\n\r\n    function listaPecas(uint256 numeroUnico) public view returns (uint[] memory, string[] memory, string[] memory, string[] memory) {\r\n        Peca[] storage pecas = processos[numeroUnico];\r\n        require(pecas.length > 0, \"Nenhuma peca cadastrada para o processo informado.\");\r\n\r\n        uint[] memory ids = new uint[](pecas.length);\r\n        string[] memory nomes = new string[](pecas.length);\r\n        string[] memory hashes = new string[](pecas.length);\r\n        string[] memory datas = new string[](pecas.length);\r\n\r\n        for (uint i = 0; i < pecas.length; i++) {\r\n            ids[i] = pecas[i].id;\r\n            nomes[i] = pecas[i].nome;\r\n            hashes[i] = pecas[i].hash;\r\n            datas[i] = pecas[i].dataDeCadastro;\r\n        }\r\n\r\n        return (ids, nomes, hashes, datas);\r\n    }\r\n\r\n    function recuperaPeca(uint256 numeroUnico, uint idDaPeca) public view returns(Peca memory) {\r\n        Peca[] storage pecas = processos[numeroUnico];\r\n        require(pecas.length > 0, \"Nenhuma peca cadastrada para o processo informado.\");\r\n\r\n        return pecas[idDaPeca];\r\n    }\r\n\r\n    event PecaAdicionada(uint id, string hash);\r\n\r\n}",
  "sourcePath": "D:\\pos\\cases-com-blockchain\\trabalho-blockchain-iesb\\dapp\\contracts\\PecasProcessuais.sol",
  "compiler": {
    "name": "solc",
    "version": "0.5.0+commit.1d4f565a.Emscripten.clang"
  },
  "schemaVersion": "3.1.0",
  "updatedAt": "2020-06-10T19:47:25.091Z",
  "networkType": "ethereum",
  "devdoc": {
    "methods": {}
  },
  "userdoc": {
    "methods": {}
  }
}