{
  "contractName": "PecasProcessuais",
  "abi": [
    {
      "constant": true,
      "inputs": [
        {
          "name": "",
          "type": "uint256"
        }
      ],
      "name": "listaDeProcessos",
      "outputs": [
        {
          "name": "",
          "type": "uint256"
        }
      ],
      "payable": false,
      "stateMutability": "view",
      "type": "function"
    },
    {
      "anonymous": false,
      "inputs": [
        {
          "indexed": false,
          "name": "id",
          "type": "uint256"
        },
        {
          "indexed": false,
          "name": "hash",
          "type": "string"
        }
      ],
      "name": "PecaAdicionada",
      "type": "event"
    },
    {
      "constant": false,
      "inputs": [
        {
          "name": "numeroUnico",
          "type": "uint256"
        },
        {
          "name": "nomeDaPeca",
          "type": "string"
        },
        {
          "name": "hash",
          "type": "string"
        },
        {
          "name": "dataDeCadastro",
          "type": "string"
        }
      ],
      "name": "cadastraPeca",
      "outputs": [],
      "payable": false,
      "stateMutability": "nonpayable",
      "type": "function"
    },
    {
      "constant": true,
      "inputs": [],
      "name": "listaProcessos",
      "outputs": [
        {
          "name": "",
          "type": "uint256[]"
        },
        {
          "name": "",
          "type": "uint256[]"
        }
      ],
      "payable": false,
      "stateMutability": "view",
      "type": "function"
    },
    {
      "constant": true,
      "inputs": [
        {
          "name": "numeroUnico",
          "type": "uint256"
        }
      ],
      "name": "listaPecas",
      "outputs": [
        {
          "name": "",
          "type": "uint256[]"
        },
        {
          "name": "",
          "type": "string[]"
        },
        {
          "name": "",
          "type": "string[]"
        },
        {
          "name": "",
          "type": "string[]"
        },
        {
          "name": "",
          "type": "address[]"
        }
      ],
      "payable": false,
      "stateMutability": "view",
      "type": "function"
    },
    {
      "constant": true,
      "inputs": [
        {
          "name": "numeroUnico",
          "type": "uint256"
        },
        {
          "name": "idDaPeca",
          "type": "uint256"
        }
      ],
      "name": "recuperaPeca",
      "outputs": [
        {
          "components": [
            {
              "name": "id",
              "type": "uint256"
            },
            {
              "name": "nome",
              "type": "string"
            },
            {
              "name": "hash",
              "type": "string"
            },
            {
              "name": "dataDeCadastro",
              "type": "string"
            },
            {
              "name": "dono",
              "type": "address"
            }
          ],
          "name": "",
          "type": "tuple"
        }
      ],
      "payable": false,
      "stateMutability": "view",
      "type": "function"
    }
  ],
  "bytecode": "0x608060405234801561001057600080fd5b5061162e806100206000396000f3fe60806040526004361061006d576000357c0100000000000000000000000000000000000000000000000000000000900463ffffffff1680633de1da711461007257806361ca5de01461009b578063905f8c0f146100c757806398266aa8146101045780639a8ff98214610145575b600080fd5b34801561007e57600080fd5b5061009960048036036100949190810190610ea2565b610182565b005b3480156100a757600080fd5b506100b061040c565b6040516100be929190611359565b60405180910390f35b3480156100d357600080fd5b506100ee60048036036100e99190810190610f4d565b610518565b6040516100fb9190611410565b60405180910390f35b34801561011057600080fd5b5061012b60048036036101269190810190610e79565b6107f6565b60405161013c9594939291906112e3565b60405180910390f35b34801561015157600080fd5b5061016c60048036036101679190810190610e79565b610d01565b6040516101799190611432565b60405180910390f35b6000841115156101c7576040517f08c379a00000000000000000000000000000000000000000000000000000000081526004016101be906113d0565b60405180910390fd5b600183511015151561020e576040517f08c379a000000000000000000000000000000000000000000000000000000000815260040161020590611390565b60405180910390fd5b6001825110151515610255576040517f08c379a000000000000000000000000000000000000000000000000000000000815260040161024c906113b0565b60405180910390fd5b6000806000868152602001908152602001600020905060008180549050905060008114156102aa5760018690806001815401808255809150509060018203906000526020600020016000909192909190915055505b6102b2610d24565b60a0604051908101604052808381526020018781526020018681526020018581526020013373ffffffffffffffffffffffffffffffffffffffff168152509050828190806001815401808255809150509060018203906000526020600020906005020160009091929091909150600082015181600001556020820151816001019080519060200190610345929190610d6a565b506040820151816002019080519060200190610362929190610d6a565b50606082015181600301908051906020019061037f929190610d6a565b5060808201518160040160006101000a81548173ffffffffffffffffffffffffffffffffffffffff021916908373ffffffffffffffffffffffffffffffffffffffff1602179055505050507f6795ae7159da6b3818a9d555622424b59a0e5efcb73b2b959c75d6979c7fcf1182866040516103fb92919061144d565b60405180910390a150505050505050565b60608060606001805490506040519080825280602002602001820160405280156104455781602001602082028038833980820191505090505b50905060008090505b6001805490508110156104b957600060018281548110151561046c57fe5b9060005260206000200154905060008082815260200190815260200160002080549050838381518110151561049d57fe5b906020019060200201818152505050808060010191505061044e565b506001818180548060200260200160405190810160405280929190818152602001828054801561050857602002820191906000526020600020905b8154815260200190600101908083116104f4575b5050505050915092509250509091565b610520610d24565b600080600085815260200190815260200160002090506000818054905011151561057f576040517f08c379a0000000000000000000000000000000000000000000000000000000008152600401610576906113f0565b60405180910390fd5b808381548110151561058d57fe5b906000526020600020906005020160a0604051908101604052908160008201548152602001600182018054600181600116156101000203166002900480601f01602080910402602001604051908101604052809291908181526020018280546001816001161561010002031660029004801561064a5780601f1061061f5761010080835404028352916020019161064a565b820191906000526020600020905b81548152906001019060200180831161062d57829003601f168201915b50505050508152602001600282018054600181600116156101000203166002900480601f0160208091040260200160405190810160405280929190818152602001828054600181600116156101000203166002900480156106ec5780601f106106c1576101008083540402835291602001916106ec565b820191906000526020600020905b8154815290600101906020018083116106cf57829003601f168201915b50505050508152602001600382018054600181600116156101000203166002900480601f01602080910402602001604051908101604052809291908181526020018280546001816001161561010002031660029004801561078e5780601f106107635761010080835404028352916020019161078e565b820191906000526020600020905b81548152906001019060200180831161077157829003601f168201915b505050505081526020016004820160009054906101000a900473ffffffffffffffffffffffffffffffffffffffff1673ffffffffffffffffffffffffffffffffffffffff1673ffffffffffffffffffffffffffffffffffffffff168152505091505092915050565b6060806060806060600080600088815260200190815260200160002090506000818054905011151561085d576040517f08c379a0000000000000000000000000000000000000000000000000000000008152600401610854906113f0565b60405180910390fd5b606081805490506040519080825280602002602001820160405280156108925781602001602082028038833980820191505090505b509050606082805490506040519080825280602002602001820160405280156108cf57816020015b60608152602001906001900390816108ba5790505b5090506060838054905060405190808252806020026020018201604052801561090c57816020015b60608152602001906001900390816108f75790505b5090506060848054905060405190808252806020026020018201604052801561094957816020015b60608152602001906001900390816109345790505b509050606085805490506040519080825280602002602001820160405280156109815781602001602082028038833980820191505090505b50905060008090505b8680549050811015610ce25786818154811015156109a457fe5b90600052602060002090600502016000015486828151811015156109c457fe5b906020019060200201818152505086818154811015156109e057fe5b90600052602060002090600502016001018054600181600116156101000203166002900480601f016020809104026020016040519081016040528092919081815260200182805460018160011615610100020316600290048015610a855780601f10610a5a57610100808354040283529160200191610a85565b820191906000526020600020905b815481529060010190602001808311610a6857829003601f168201915b50505050508582815181101515610a9857fe5b906020019060200201819052508681815481101515610ab357fe5b90600052602060002090600502016002018054600181600116156101000203166002900480601f016020809104026020016040519081016040528092919081815260200182805460018160011615610100020316600290048015610b585780601f10610b2d57610100808354040283529160200191610b58565b820191906000526020600020905b815481529060010190602001808311610b3b57829003601f168201915b50505050508482815181101515610b6b57fe5b906020019060200201819052508681815481101515610b8657fe5b90600052602060002090600502016003018054600181600116156101000203166002900480601f016020809104026020016040519081016040528092919081815260200182805460018160011615610100020316600290048015610c2b5780601f10610c0057610100808354040283529160200191610c2b565b820191906000526020600020905b815481529060010190602001808311610c0e57829003601f168201915b50505050508382815181101515610c3e57fe5b906020019060200201819052508681815481101515610c5957fe5b906000526020600020906005020160040160009054906101000a900473ffffffffffffffffffffffffffffffffffffffff168282815181101515610c9957fe5b9060200190602002019073ffffffffffffffffffffffffffffffffffffffff16908173ffffffffffffffffffffffffffffffffffffffff1681525050808060010191505061098a565b5084848484849a509a509a509a509a5050505050505091939590929450565b600181815481101515610d1057fe5b906000526020600020016000915090505481565b60a06040519081016040528060008152602001606081526020016060815260200160608152602001600073ffffffffffffffffffffffffffffffffffffffff1681525090565b828054600181600116156101000203166002900490600052602060002090601f016020900481019282601f10610dab57805160ff1916838001178555610dd9565b82800160010185558215610dd9579182015b82811115610dd8578251825591602001919060010190610dbd565b5b509050610de69190610dea565b5090565b610e0c91905b80821115610e08576000816000905550600101610df0565b5090565b90565b600082601f8301121515610e2257600080fd5b8135610e35610e30826114aa565b61147d565b91508082526020830160208301858383011115610e5157600080fd5b610e5c8382846115a1565b50505092915050565b6000610e718235611597565b905092915050565b600060208284031215610e8b57600080fd5b6000610e9984828501610e65565b91505092915050565b60008060008060808587031215610eb857600080fd5b6000610ec687828801610e65565b945050602085013567ffffffffffffffff811115610ee357600080fd5b610eef87828801610e0f565b935050604085013567ffffffffffffffff811115610f0c57600080fd5b610f1887828801610e0f565b925050606085013567ffffffffffffffff811115610f3557600080fd5b610f4187828801610e0f565b91505092959194509250565b60008060408385031215610f6057600080fd5b6000610f6e85828601610e65565b9250506020610f7f85828601610e65565b9150509250929050565b610f928161155b565b82525050565b6000610fa3826114fd565b808452602084019350610fb5836114d6565b60005b82811015610fe757610fcb868351610f89565b610fd482611534565b9150602086019550600181019050610fb8565b50849250505092915050565b6000610ffe82611508565b80845260208401935083602082028501611017856114e3565b60005b848110156110505783830388526110328383516110f2565b925061103d82611541565b915060208801975060018101905061101a565b508196508694505050505092915050565b600061106c82611513565b80845260208401935061107e836114f0565b60005b828110156110b0576110948683516112d4565b61109d8261154e565b9150602086019550600181019050611081565b50849250505092915050565b60006110c782611529565b8084526110db8160208601602086016115b0565b6110e4816115e3565b602085010191505092915050565b60006110fd8261151e565b8084526111118160208601602086016115b0565b61111a816115e3565b602085010191505092915050565b6000602082527f4e6f6d65206461207065c3a76120444556452073657220696e666f726d61646f6020830152604082019050919050565b6000602082527f48617368206461207065c3a76120444556452073657220696e666f726d61646f6020830152604082019050919050565b6000602e82527f4ec3ba6d65726f20c3ba6e69636f20646f2070726f636573736f20444556452060208301527f73657220696e666f726d61646f2e0000000000000000000000000000000000006040830152606082019050919050565b6000603282527f4e656e68756d61207065636120636164617374726164612070617261206f207060208301527f726f636573736f20696e666f726d61646f2e00000000000000000000000000006040830152606082019050919050565b600060a08301600083015161126860008601826112d4565b506020830151848203602086015261128082826110f2565b9150506040830151848203604086015261129a82826110f2565b915050606083015184820360608601526112b482826110f2565b91505060808301516112c96080860182610f89565b508091505092915050565b6112dd8161158d565b82525050565b600060a08201905081810360008301526112fd8188611061565b905081810360208301526113118187610ff3565b905081810360408301526113258186610ff3565b905081810360608301526113398185610ff3565b9050818103608083015261134d8184610f98565b90509695505050505050565b600060408201905081810360008301526113738185611061565b905081810360208301526113878184611061565b90509392505050565b600060208201905081810360008301526113a981611128565b9050919050565b600060208201905081810360008301526113c98161115f565b9050919050565b600060208201905081810360008301526113e981611196565b9050919050565b60006020820190508181036000830152611409816111f3565b9050919050565b6000602082019050818103600083015261142a8184611250565b905092915050565b600060208201905061144760008301846112d4565b92915050565b600060408201905061146260008301856112d4565b818103602083015261147481846110bc565b90509392505050565b6000604051905081810181811067ffffffffffffffff821117156114a057600080fd5b8060405250919050565b600067ffffffffffffffff8211156114c157600080fd5b601f19601f8301169050602081019050919050565b6000602082019050919050565b6000602082019050919050565b6000602082019050919050565b600081519050919050565b600081519050919050565b600081519050919050565b600081519050919050565b600081519050919050565b6000602082019050919050565b6000602082019050919050565b6000602082019050919050565b60006115668261156d565b9050919050565b600073ffffffffffffffffffffffffffffffffffffffff82169050919050565b6000819050919050565b6000819050919050565b82818337600083830152505050565b60005b838110156115ce5780820151818401526020810190506115b3565b838111156115dd576000848401525b50505050565b6000601f19601f830116905091905056fea265627a7a723058208f586d98307bae01447339553f293534b06b357acc56affdfd002670cdba16776c6578706572696d656e74616cf50037",
  "source": "pragma solidity ^0.5.0;\r\npragma experimental ABIEncoderV2;\r\n\r\ncontract PecasProcessuais {\r\n\r\n    mapping(uint256 => Peca[]) processos;\r\n    uint256[] public listaDeProcessos;\r\n    \r\n    struct Peca {\r\n        uint id;\r\n        string nome;\r\n        string hash;\r\n        string dataDeCadastro;\r\n        address dono;\r\n    }\r\n\r\n    function cadastraPeca(uint256 numeroUnico, string memory nomeDaPeca, string memory hash, string memory dataDeCadastro) public {\r\n        require(numeroUnico > 0, \"Número único do processo DEVE ser informado.\");\r\n        require(bytes(nomeDaPeca).length >= 1, \"Nome da peça DEVE ser informado\");\r\n        require(bytes(hash).length >= 1, \"Hash da peça DEVE ser informado\");\r\n\r\n        Peca[]storage pecasDoProcesso = processos[numeroUnico];\r\n        uint idDaPeca = pecasDoProcesso.length;\r\n        if (idDaPeca == 0) {\r\n            listaDeProcessos.push(numeroUnico);\r\n        }\r\n\r\n        Peca memory novaPeca = Peca({ \r\n            id: idDaPeca, \r\n            nome: nomeDaPeca, \r\n            hash: hash, \r\n            dataDeCadastro: dataDeCadastro,\r\n            dono: msg.sender\r\n        });\r\n        pecasDoProcesso.push(novaPeca);\r\n                \r\n        emit PecaAdicionada(idDaPeca, hash);\r\n    }\r\n\r\n    function listaProcessos() public view returns (uint256[] memory, uint[] memory) {\r\n        uint[] memory quantidadeDePecas = new uint[](listaDeProcessos.length);\r\n\r\n        for (uint i = 0; i < listaDeProcessos.length; i++) {\r\n            uint256 numeroDoProcesso = listaDeProcessos[i];\r\n            quantidadeDePecas[i] = processos[numeroDoProcesso].length;\r\n        }\r\n\r\n        return (listaDeProcessos, quantidadeDePecas);\r\n    }\r\n\r\n    function listaPecas(uint256 numeroUnico) public view \r\n        returns (uint[] memory, string[] memory, string[] memory, string[] memory, address[] memory) {\r\n        Peca[] storage pecas = processos[numeroUnico];\r\n        require(pecas.length > 0, \"Nenhuma peca cadastrada para o processo informado.\");\r\n\r\n        uint[] memory ids = new uint[](pecas.length);\r\n        string[] memory nomes = new string[](pecas.length);\r\n        string[] memory hashes = new string[](pecas.length);\r\n        string[] memory datas = new string[](pecas.length);\r\n        address[] memory donos = new address[](pecas.length);\r\n\r\n        for (uint i = 0; i < pecas.length; i++) {\r\n            ids[i] = pecas[i].id;\r\n            nomes[i] = pecas[i].nome;\r\n            hashes[i] = pecas[i].hash;\r\n            datas[i] = pecas[i].dataDeCadastro;\r\n            donos[i] = pecas[i].dono;\r\n        }\r\n\r\n        return (ids, nomes, hashes, datas, donos);\r\n    }\r\n\r\n    function recuperaPeca(uint256 numeroUnico, uint idDaPeca) public view returns(Peca memory) {\r\n        Peca[] storage pecas = processos[numeroUnico];\r\n        require(pecas.length > 0, \"Nenhuma peca cadastrada para o processo informado.\");\r\n\r\n        return pecas[idDaPeca];\r\n    }\r\n\r\n    event PecaAdicionada(uint id, string hash);\r\n\r\n}",
  "sourcePath": "D:\\pos\\cases-com-blockchain\\trabalho-blockchain-iesb\\dapp\\contracts\\PecasProcessuais.sol",
  "compiler": {
    "name": "solc",
    "version": "0.5.0+commit.1d4f565a.Emscripten.clang"
  },
  "schemaVersion": "3.1.0",
  "updatedAt": "2020-06-10T22:35:00.937Z",
  "networkType": "ethereum",
  "devdoc": {
    "methods": {}
  },
  "userdoc": {
    "methods": {}
  }
}